{
  "_format": "hh-sol-artifact-1",
  "contractName": "SharksAndTigersFactory",
  "sourceName": "contracts/SharksAndTigers.sol",
  "abi": [
    {
      "anonymous": false,
      "inputs": [
        {
          "indexed": true,
          "internalType": "uint256",
          "name": "gameId",
          "type": "uint256"
        },
        {
          "indexed": true,
          "internalType": "address",
          "name": "gameContract",
          "type": "address"
        },
        {
          "indexed": true,
          "internalType": "address",
          "name": "playerOne",
          "type": "address"
        },
        {
          "indexed": false,
          "internalType": "enum SharksAndTigers.Mark",
          "name": "_playerOneMark",
          "type": "uint8"
        },
        {
          "indexed": false,
          "internalType": "uint256",
          "name": "position",
          "type": "uint256"
        },
        {
          "indexed": false,
          "internalType": "uint256",
          "name": "playclock",
          "type": "uint256"
        },
        {
          "indexed": false,
          "internalType": "uint256",
          "name": "wager",
          "type": "uint256"
        }
      ],
      "name": "GameCreated",
      "type": "event"
    },
    {
      "inputs": [
        {
          "internalType": "uint256",
          "name": "position",
          "type": "uint256"
        },
        {
          "internalType": "uint256",
          "name": "_playerOneMark",
          "type": "uint256"
        },
        {
          "internalType": "uint256",
          "name": "playClock",
          "type": "uint256"
        }
      ],
      "name": "createGame",
      "outputs": [],
      "stateMutability": "payable",
      "type": "function"
    },
    {
      "inputs": [],
      "name": "gameCount",
      "outputs": [
        {
          "internalType": "uint256",
          "name": "",
          "type": "uint256"
        }
      ],
      "stateMutability": "view",
      "type": "function"
    }
  ],
  "bytecode": "0x60806040526000805534801561001457600080fd5b50613fcc806100246000396000f3fe6080604052600436106200002c5760003560e01c80634d1975b41462000031578063c27415211462000061575b600080fd5b3480156200003e57600080fd5b506200004962000081565b604051620000589190620002d5565b60405180910390f35b6200007f600480360381019062000079919062000328565b62000087565b005b60005481565b6001821480620000975750600282145b620000d9576040517f08c379a0000000000000000000000000000000000000000000000000000000008152600401620000d090620003e5565b60405180910390fd5b600034116200011f576040517f08c379a0000000000000000000000000000000000000000000000000000000008152600401620001169062000457565b60405180910390fd5b60008310158015620001315750600983105b62000173576040517f08c379a00000000000000000000000000000000000000000000000000000000081526004016200016a90620004c9565b60405180910390fd5b60008111620001b9576040517f08c379a0000000000000000000000000000000000000000000000000000000008152600401620001b0906200053b565b60405180910390fd5b6000826002811115620001d157620001d06200055d565b5b9050600080815480929190620001e790620005bb565b9190505550600034338684866000546040516200020490620002ac565b620002149594939291906200069e565b6040518091039082f090508015801562000232573d6000803e3d6000fd5b5090503373ffffffffffffffffffffffffffffffffffffffff168173ffffffffffffffffffffffffffffffffffffffff166000547faae64971837d72c612df31075b00555cb72c11c37eab95245223ce231671d640858988346040516200029d9493929190620006fb565b60405180910390a45050505050565b61384e806200074983390190565b6000819050919050565b620002cf81620002ba565b82525050565b6000602082019050620002ec6000830184620002c4565b92915050565b600080fd5b6200030281620002ba565b81146200030e57600080fd5b50565b6000813590506200032281620002f7565b92915050565b600080600060608486031215620003445762000343620002f2565b5b6000620003548682870162000311565b9350506020620003678682870162000311565b92505060406200037a8682870162000311565b9150509250925092565b600082825260208201905092915050565b7f496e76616c6964206d61726b20666f7220626f61726400000000000000000000600082015250565b6000620003cd60168362000384565b9150620003da8262000395565b602082019050919050565b600060208201905081810360008301526200040081620003be565b9050919050565b7f47616d65206372656174696f6e20726571756972657320612077616765720000600082015250565b60006200043f601e8362000384565b91506200044c8262000407565b602082019050919050565b60006020820190508181036000830152620004728162000430565b9050919050565b7f506f736974696f6e206973206f7574206f662072616e67650000000000000000600082015250565b6000620004b160188362000384565b9150620004be8262000479565b602082019050919050565b60006020820190508181036000830152620004e481620004a2565b9050919050565b7f4d75737420736574206120706c617920636c6f636b2076616c75650000000000600082015250565b600062000523601b8362000384565b91506200053082620004eb565b602082019050919050565b60006020820190508181036000830152620005568162000514565b9050919050565b7f4e487b7100000000000000000000000000000000000000000000000000000000600052602160045260246000fd5b7f4e487b7100000000000000000000000000000000000000000000000000000000600052601160045260246000fd5b6000620005c882620002ba565b91507fffffffffffffffffffffffffffffffffffffffffffffffffffffffffffffffff8203620005fd57620005fc6200058c565b5b600182019050919050565b600073ffffffffffffffffffffffffffffffffffffffff82169050919050565b6000620006358262000608565b9050919050565b620006478162000628565b82525050565b600381106200066157620006606200055d565b5b50565b600081905062000674826200064d565b919050565b6000620006868262000664565b9050919050565b620006988162000679565b82525050565b600060a082019050620006b560008301886200063c565b620006c46020830187620002c4565b620006d360408301866200068d565b620006e26060830185620002c4565b620006f16080830184620002c4565b9695505050505050565b60006080820190506200071260008301876200068d565b620007216020830186620002c4565b620007306040830185620002c4565b6200073f6060830184620002c4565b9594505050505056fe60806040526040516200384e3803806200384e8339818101604052810190620000299190620002d4565b8060008190555084600460006101000a81548173ffffffffffffffffffffffffffffffffffffffff021916908373ffffffffffffffffffffffffffffffffffffffff1602179055506000600760166101000a81548160ff021916908360028111156200009a57620000996200035c565b5b021790555034600181905550816002819055506000600760156101000a81548160ff02191690831515021790555034600960008773ffffffffffffffffffffffffffffffffffffffff1673ffffffffffffffffffffffffffffffffffffffff1681526020019081526020016000208190555082600760176101000a81548160ff021916908360028111156200013457620001336200035c565b5b02179055506001600281111562000150576200014f6200035c565b5b8360028111156200016657620001656200035c565b5b146200017457600162000177565b60025b600760186101000a81548160ff021916908360028111156200019e576200019d6200035c565b5b0217905550600760179054906101000a900460ff1660088560098110620001ca57620001c96200038b565b5b602091828204019190066101000a81548160ff02191690836002811115620001f757620001f66200035c565b5b02179055505050505050620003ba565b600080fd5b600073ffffffffffffffffffffffffffffffffffffffff82169050919050565b600062000239826200020c565b9050919050565b6200024b816200022c565b81146200025757600080fd5b50565b6000815190506200026b8162000240565b92915050565b6000819050919050565b620002868162000271565b81146200029257600080fd5b50565b600081519050620002a6816200027b565b92915050565b60038110620002ba57600080fd5b50565b600081519050620002ce81620002ac565b92915050565b600080600080600060a08688031215620002f357620002f262000207565b5b600062000303888289016200025a565b9550506020620003168882890162000295565b94505060406200032988828901620002bd565b93505060606200033c8882890162000295565b92505060806200034f8882890162000295565b9150509295509295909350565b7f4e487b7100000000000000000000000000000000000000000000000000000000600052602160045260246000fd5b7f4e487b7100000000000000000000000000000000000000000000000000000000600052603260045260246000fd5b61348480620003ca6000396000f3fe60806040526004361061011f5760003560e01c8063bbce67ca116100a0578063d7c81b5511610064578063d7c81b55146103a3578063dfbf53ae146103ce578063efaa55a0146103f9578063f08e9afb14610415578063f84fce56146104405761011f565b8063bbce67ca146102e0578063bcffcf411461030b578063c010ce6814610336578063c1b9310c14610361578063d1f9c24d146103785761011f565b8063667d5d22116100e7578063667d5d221461021f5780639431fb0e1461024a5780639bea48d514610275578063abd9f461146102a0578063b88a802f146102c95761011f565b80630a9f85dd146101245780631746bd1b1461014f57806327e235e31461017a5780634404a438146101b75780635d248301146101e2575b600080fd5b34801561013057600080fd5b5061013961046b565b60405161014691906125b1565b60405180910390f35b34801561015b57600080fd5b50610164610491565b604051610171919061288a565b60405180910390f35b34801561018657600080fd5b506101a1600480360381019061019c91906128d7565b6106e1565b6040516101ae9190612913565b60405180910390f35b3480156101c357600080fd5b506101cc6106f9565b6040516101d991906125b1565b60405180910390f35b3480156101ee57600080fd5b506102096004803603810190610204919061295a565b61071f565b6040516102169190612996565b60405180910390f35b34801561022b57600080fd5b50610234610749565b6040516102419190612913565b60405180910390f35b34801561025657600080fd5b5061025f61074f565b60405161026c9190612913565b60405180910390f35b34801561028157600080fd5b5061028a610755565b6040516102979190612996565b60405180910390f35b3480156102ac57600080fd5b506102c760048036038101906102c2919061295a565b610768565b005b3480156102d557600080fd5b506102de610ecd565b005b3480156102ec57600080fd5b506102f561147e565b6040516103029190612913565b60405180910390f35b34801561031757600080fd5b50610320611484565b60405161032d91906125b1565b60405180910390f35b34801561034257600080fd5b5061034b6114aa565b60405161035891906129c0565b60405180910390f35b34801561036d57600080fd5b506103766114bd565b005b34801561038457600080fd5b5061038d6118b9565b60405161039a91906129ea565b60405180910390f35b3480156103af57600080fd5b506103b86118cc565b6040516103c59190612913565b60405180910390f35b3480156103da57600080fd5b506103e36118d2565b6040516103f091906125b1565b60405180910390f35b610413600480360381019061040e919061295a565b6118f8565b005b34801561042157600080fd5b5061042a611ca7565b6040516104379190612996565b60405180910390f35b34801561044c57600080fd5b50610455611cba565b60405161046291906129c0565b60405180910390f35b600560009054906101000a900473ffffffffffffffffffffffffffffffffffffffff1681565b610499612446565b6000604051806101c001604052806000548152602001600154815260200160025481526020016003548152602001600460009054906101000a900473ffffffffffffffffffffffffffffffffffffffff1673ffffffffffffffffffffffffffffffffffffffff168152602001600560009054906101000a900473ffffffffffffffffffffffffffffffffffffffff1673ffffffffffffffffffffffffffffffffffffffff168152602001600660009054906101000a900473ffffffffffffffffffffffffffffffffffffffff1673ffffffffffffffffffffffffffffffffffffffff168152602001600760009054906101000a900473ffffffffffffffffffffffffffffffffffffffff1673ffffffffffffffffffffffffffffffffffffffff168152602001600760149054906101000a900460ff1615158152602001600760159054906101000a900460ff1615158152602001600760169054906101000a900460ff16600281111561060f5761060e61260f565b5b8152602001600760179054906101000a900460ff1660028111156106365761063561260f565b5b8152602001600760189054906101000a900460ff16600281111561065d5761065c61260f565b5b815260200160086009806020026040519081016040528092919082600980156106d0576020028201916000905b82829054906101000a900460ff1660028111156106aa576106a961260f565b5b8152602001906001019060208260000104928301926001038202915080841161068a5790505b505050505081525090508091505090565b60096020528060005260406000206000915090505481565b600660009054906101000a900473ffffffffffffffffffffffffffffffffffffffff1681565b6008816009811061072f57600080fd5b60209182820401919006915054906101000a900460ff1681565b60015481565b60025481565b600760189054906101000a900460ff1681565b806000811015801561077a5750600981105b6107b9576040517f08c379a00000000000000000000000000000000000000000000000000000000081526004016107b090612a62565b60405180910390fd5b600060028111156107cd576107cc61260f565b5b600882600981106107e1576107e0612a82565b5b602091828204019190069054906101000a900460ff1660028111156108095761080861260f565b5b14610849576040517f08c379a000000000000000000000000000000000000000000000000000000000815260040161084090612afd565b60405180910390fd5b6001600281111561085d5761085c61260f565b5b600760169054906101000a900460ff16600281111561087f5761087e61260f565b5b146108bf576040517f08c379a00000000000000000000000000000000000000000000000000000000081526004016108b690612b69565b60405180910390fd5b3373ffffffffffffffffffffffffffffffffffffffff16600660009054906101000a900473ffffffffffffffffffffffffffffffffffffffff1673ffffffffffffffffffffffffffffffffffffffff161461094f576040517f08c379a000000000000000000000000000000000000000000000000000000000815260040161094690612bd5565b60405180910390fd5b600254600354426109609190612c24565b11156109a1576040517f08c379a000000000000000000000000000000000000000000000000000000000815260040161099890612cca565b60405180910390fd5b6000600660009054906101000a900473ffffffffffffffffffffffffffffffffffffffff1673ffffffffffffffffffffffffffffffffffffffff16600460009054906101000a900473ffffffffffffffffffffffffffffffffffffffff1673ffffffffffffffffffffffffffffffffffffffff1603610a9457600760179054906101000a900460ff169050600560009054906101000a900473ffffffffffffffffffffffffffffffffffffffff16600660006101000a81548173ffffffffffffffffffffffffffffffffffffffff021916908373ffffffffffffffffffffffffffffffffffffffff160217905550610b0a565b600760189054906101000a900460ff169050600460009054906101000a900473ffffffffffffffffffffffffffffffffffffffff16600660006101000a81548173ffffffffffffffffffffffffffffffffffffffff021916908373ffffffffffffffffffffffffffffffffffffffff1602179055505b8060088460098110610b1f57610b1e612a82565b5b602091828204019190066101000a81548160ff02191690836002811115610b4957610b4861260f565b5b021790555042600381905550610b5e83611ccd565b15610ce6576002600760166101000a81548160ff02191690836002811115610b8957610b8861260f565b5b021790555033600760006101000a81548173ffffffffffffffffffffffffffffffffffffffff021916908373ffffffffffffffffffffffffffffffffffffffff160217905550600760009054906101000a900473ffffffffffffffffffffffffffffffffffffffff1673ffffffffffffffffffffffffffffffffffffffff163073ffffffffffffffffffffffffffffffffffffffff166000547f1e62ae670ffb2ea4f6e8886aada411f41953a416e162abb75d3dedb9c35ff305600460009054906101000a900473ffffffffffffffffffffffffffffffffffffffff16600560009054906101000a900473ffffffffffffffffffffffffffffffffffffffff16600760179054906101000a900460ff16600760189054906101000a900460ff166001546002546003546000600760149054906101000a900460ff16604051610cd999989796959493929190612cea565b60405180910390a4610ec8565b610cee6123be565b15610e50576002600760166101000a81548160ff02191690836002811115610d1957610d1861260f565b5b02179055506001600760146101000a81548160ff021916908315150217905550600760009054906101000a900473ffffffffffffffffffffffffffffffffffffffff1673ffffffffffffffffffffffffffffffffffffffff163073ffffffffffffffffffffffffffffffffffffffff166000547f1e62ae670ffb2ea4f6e8886aada411f41953a416e162abb75d3dedb9c35ff305600460009054906101000a900473ffffffffffffffffffffffffffffffffffffffff16600560009054906101000a900473ffffffffffffffffffffffffffffffffffffffff16600760179054906101000a900460ff16600760189054906101000a900460ff166001546002546003546000600760149054906101000a900460ff16604051610e4399989796959493929190612cea565b60405180910390a4610ec7565b3373ffffffffffffffffffffffffffffffffffffffff163073ffffffffffffffffffffffffffffffffffffffff166000547fb12bcfdbc8a5d60c957ae1a6928effe1772ea911577065ab21934c928cb521218487600254600354600154604051610ebe959493929190612d77565b60405180910390a45b5b505050565b600060025460035442610ee09190612c24565b1115610fc0573373ffffffffffffffffffffffffffffffffffffffff16600660009054906101000a900473ffffffffffffffffffffffffffffffffffffffff1673ffffffffffffffffffffffffffffffffffffffff1603610f76576040517f08c379a0000000000000000000000000000000000000000000000000000000008152600401610f6d90612e3c565b60405180910390fd5b33600760006101000a81548173ffffffffffffffffffffffffffffffffffffffff021916908373ffffffffffffffffffffffffffffffffffffffff16021790555060019050611172565b600280811115610fd357610fd261260f565b5b600760169054906101000a900460ff166002811115610ff557610ff461260f565b5b14611035576040517f08c379a000000000000000000000000000000000000000000000000000000000815260040161102c90612ea8565b60405180910390fd5b60001515600760149054906101000a900460ff1615151461108b576040517f08c379a000000000000000000000000000000000000000000000000000000000815260040161108290612f14565b60405180910390fd5b3373ffffffffffffffffffffffffffffffffffffffff16600760009054906101000a900473ffffffffffffffffffffffffffffffffffffffff1673ffffffffffffffffffffffffffffffffffffffff161461111b576040517f08c379a000000000000000000000000000000000000000000000000000000000815260040161111290612e3c565b60405180910390fd5b60001515600760159054906101000a900460ff16151514611171576040517f08c379a000000000000000000000000000000000000000000000000000000000815260040161116890612f80565b60405180910390fd5b5b600060096000600460009054906101000a900473ffffffffffffffffffffffffffffffffffffffff1673ffffffffffffffffffffffffffffffffffffffff1673ffffffffffffffffffffffffffffffffffffffff16815260200190815260200160002081905550600060096000600560009054906101000a900473ffffffffffffffffffffffffffffffffffffffff1673ffffffffffffffffffffffffffffffffffffffff1673ffffffffffffffffffffffffffffffffffffffff168152602001908152602001600020819055506001600760156101000a81548160ff0219169083151502179055506000600760009054906101000a900473ffffffffffffffffffffffffffffffffffffffff1673ffffffffffffffffffffffffffffffffffffffff1660026001546112a59190612fa0565b6040516112b190613013565b60006040518083038185875af1925050503d80600081146112ee576040519150601f19603f3d011682016040523d82523d6000602084013e6112f3565b606091505b5050905080611337576040517f08c379a000000000000000000000000000000000000000000000000000000000815260040161132e90613074565b60405180910390fd5b811561147a576002600760166101000a81548160ff021916908360028111156113635761136261260f565b5b0217905550600760009054906101000a900473ffffffffffffffffffffffffffffffffffffffff1673ffffffffffffffffffffffffffffffffffffffff163073ffffffffffffffffffffffffffffffffffffffff166000547f1e62ae670ffb2ea4f6e8886aada411f41953a416e162abb75d3dedb9c35ff305600460009054906101000a900473ffffffffffffffffffffffffffffffffffffffff16600560009054906101000a900473ffffffffffffffffffffffffffffffffffffffff16600760179054906101000a900460ff16600760189054906101000a900460ff166001546002546003548c600760149054906101000a900460ff1660405161147199989796959493929190612cea565b60405180910390a45b5050565b60035481565b600460009054906101000a900473ffffffffffffffffffffffffffffffffffffffff1681565b600760159054906101000a900460ff1681565b600160028111156114d1576114d061260f565b5b600760169054906101000a900460ff1660028111156114f3576114f261260f565b5b03611533576040517f08c379a000000000000000000000000000000000000000000000000000000000815260040161152a90613106565b60405180910390fd5b600073ffffffffffffffffffffffffffffffffffffffff16600760009054906101000a900473ffffffffffffffffffffffffffffffffffffffff1673ffffffffffffffffffffffffffffffffffffffff16146115c4576040517f08c379a00000000000000000000000000000000000000000000000000000000081526004016115bb90613198565b60405180910390fd5b6000600960003373ffffffffffffffffffffffffffffffffffffffff1673ffffffffffffffffffffffffffffffffffffffff1681526020019081526020016000205490506000811161164b576040517f08c379a000000000000000000000000000000000000000000000000000000000815260040161164290613204565b60405180910390fd5b6000600960003373ffffffffffffffffffffffffffffffffffffffff1673ffffffffffffffffffffffffffffffffffffffff1681526020019081526020016000208190555060003373ffffffffffffffffffffffffffffffffffffffff16826040516116b690613013565b60006040518083038185875af1925050503d80600081146116f3576040519150601f19603f3d011682016040523d82523d6000602084013e6116f8565b606091505b505090508061173c576040517f08c379a000000000000000000000000000000000000000000000000000000000815260040161173390613074565b60405180910390fd5b600060028111156117505761174f61260f565b5b600760169054906101000a900460ff1660028111156117725761177161260f565b5b036118b5576002600760166101000a81548160ff0219169083600281111561179d5761179c61260f565b5b0217905550600760009054906101000a900473ffffffffffffffffffffffffffffffffffffffff1673ffffffffffffffffffffffffffffffffffffffff163073ffffffffffffffffffffffffffffffffffffffff166000547f1e62ae670ffb2ea4f6e8886aada411f41953a416e162abb75d3dedb9c35ff305600460009054906101000a900473ffffffffffffffffffffffffffffffffffffffff16600560009054906101000a900473ffffffffffffffffffffffffffffffffffffffff16600760179054906101000a900460ff16600760189054906101000a900460ff166001546002546003546000600760149054906101000a900460ff166040516118ac99989796959493929190612cea565b60405180910390a45b5050565b600760169054906101000a900460ff1681565b60005481565b600760009054906101000a900473ffffffffffffffffffffffffffffffffffffffff1681565b806000811015801561190a5750600981105b611949576040517f08c379a000000000000000000000000000000000000000000000000000000000815260040161194090612a62565b60405180910390fd5b6000600281111561195d5761195c61260f565b5b6008826009811061197157611970612a82565b5b602091828204019190069054906101000a900460ff1660028111156119995761199861260f565b5b146119d9576040517f08c379a00000000000000000000000000000000000000000000000000000000081526004016119d090612afd565b60405180910390fd5b600060028111156119ed576119ec61260f565b5b600760169054906101000a900460ff166002811115611a0f57611a0e61260f565b5b14611a4f576040517f08c379a0000000000000000000000000000000000000000000000000000000008152600401611a4690613270565b60405180910390fd5b6001543414611a93576040517f08c379a0000000000000000000000000000000000000000000000000000000008152600401611a8a906132dc565b60405180910390fd5b6001600760166101000a81548160ff02191690836002811115611ab957611ab861260f565b5b021790555033600560006101000a81548173ffffffffffffffffffffffffffffffffffffffff021916908373ffffffffffffffffffffffffffffffffffffffff16021790555034600960003373ffffffffffffffffffffffffffffffffffffffff1673ffffffffffffffffffffffffffffffffffffffff16815260200190815260200160002081905550600760189054906101000a900460ff1660088360098110611b6757611b66612a82565b5b602091828204019190066101000a81548160ff02191690836002811115611b9157611b9061260f565b5b0217905550600460009054906101000a900473ffffffffffffffffffffffffffffffffffffffff16600660006101000a81548173ffffffffffffffffffffffffffffffffffffffff021916908373ffffffffffffffffffffffffffffffffffffffff16021790555042600381905550600560009054906101000a900473ffffffffffffffffffffffffffffffffffffffff1673ffffffffffffffffffffffffffffffffffffffff163073ffffffffffffffffffffffffffffffffffffffff166000547f4eb346ac42bdd2193709c82ff2082928e2db558953d2c520c36925f88c93ca40600760189054906101000a900460ff1686600254600154604051611c9b94939291906132fc565b60405180910390a45050565b600760179054906101000a900460ff1681565b600760149054906101000a900460ff1681565b60008060088360098110611ce457611ce3612a82565b5b602091828204019190069054906101000a900460ff169050600060038085611d0c9190613370565b611d169190612fa0565b9050816002811115611d2b57611d2a61260f565b5b60088260098110611d3f57611d3e612a82565b5b602091828204019190069054906101000a900460ff166002811115611d6757611d6661260f565b5b148015611dcc5750816002811115611d8257611d8161260f565b5b6008600183611d9191906133a1565b60098110611da257611da1612a82565b5b602091828204019190069054906101000a900460ff166002811115611dca57611dc961260f565b5b145b8015611e305750816002811115611de657611de561260f565b5b6008600283611df591906133a1565b60098110611e0657611e05612a82565b5b602091828204019190069054906101000a900460ff166002811115611e2e57611e2d61260f565b5b145b15611e40576001925050506123b9565b816002811115611e5357611e5261260f565b5b6008600060098110611e6857611e67612a82565b5b602091828204019190069054906101000a900460ff166002811115611e9057611e8f61260f565b5b148015611eea5750816002811115611eab57611eaa61260f565b5b6008600360098110611ec057611ebf612a82565b5b602091828204019190069054906101000a900460ff166002811115611ee857611ee761260f565b5b145b8015611f435750816002811115611f0457611f0361260f565b5b6008600660098110611f1957611f18612a82565b5b602091828204019190069054906101000a900460ff166002811115611f4157611f4061260f565b5b145b15611f53576001925050506123b9565b816002811115611f6657611f6561260f565b5b6008600160098110611f7b57611f7a612a82565b5b602091828204019190069054906101000a900460ff166002811115611fa357611fa261260f565b5b148015611ffd5750816002811115611fbe57611fbd61260f565b5b6008600460098110611fd357611fd2612a82565b5b602091828204019190069054906101000a900460ff166002811115611ffb57611ffa61260f565b5b145b801561205657508160028111156120175761201661260f565b5b600860076009811061202c5761202b612a82565b5b602091828204019190069054906101000a900460ff1660028111156120545761205361260f565b5b145b15612066576001925050506123b9565b8160028111156120795761207861260f565b5b600860026009811061208e5761208d612a82565b5b602091828204019190069054906101000a900460ff1660028111156120b6576120b561260f565b5b14801561211057508160028111156120d1576120d061260f565b5b60086005600981106120e6576120e5612a82565b5b602091828204019190069054906101000a900460ff16600281111561210e5761210d61260f565b5b145b8015612168575081600281111561212a5761212961260f565b5b6008806009811061213e5761213d612a82565b5b602091828204019190069054906101000a900460ff1660028111156121665761216561260f565b5b145b15612178576001925050506123b9565b600060028561218791906133d5565b036123b25781600281111561219f5761219e61260f565b5b60086000600981106121b4576121b3612a82565b5b602091828204019190069054906101000a900460ff1660028111156121dc576121db61260f565b5b14801561223657508160028111156121f7576121f661260f565b5b600860046009811061220c5761220b612a82565b5b602091828204019190069054906101000a900460ff1660028111156122345761223361260f565b5b145b801561228e57508160028111156122505761224f61260f565b5b6008806009811061226457612263612a82565b5b602091828204019190069054906101000a900460ff16600281111561228c5761228b61260f565b5b145b1561229e576001925050506123b9565b8160028111156122b1576122b061260f565b5b60086002600981106122c6576122c5612a82565b5b602091828204019190069054906101000a900460ff1660028111156122ee576122ed61260f565b5b14801561234857508160028111156123095761230861260f565b5b600860046009811061231e5761231d612a82565b5b602091828204019190069054906101000a900460ff1660028111156123465761234561260f565b5b145b80156123a157508160028111156123625761236161260f565b5b600860066009811061237757612376612a82565b5b602091828204019190069054906101000a900460ff16600281111561239f5761239e61260f565b5b145b156123b1576001925050506123b9565b5b6000925050505b919050565b6000805b600981101561243d57600060028111156123df576123de61260f565b5b600882600981106123f3576123f2612a82565b5b602091828204019190069054906101000a900460ff16600281111561241b5761241a61260f565b5b0361242a576000915050612443565b808061243590613406565b9150506123c2565b50600190505b90565b604051806101c0016040528060008152602001600081526020016000815260200160008152602001600073ffffffffffffffffffffffffffffffffffffffff168152602001600073ffffffffffffffffffffffffffffffffffffffff168152602001600073ffffffffffffffffffffffffffffffffffffffff168152602001600073ffffffffffffffffffffffffffffffffffffffff168152602001600015158152602001600015158152602001600060028111156125085761250761260f565b5b8152602001600060028111156125215761252061260f565b5b81526020016000600281111561253a5761253961260f565b5b815260200161254761254d565b81525090565b604051806101200160405280600990602082028036833780820191505090505090565b600073ffffffffffffffffffffffffffffffffffffffff82169050919050565b600061259b82612570565b9050919050565b6125ab81612590565b82525050565b60006020820190506125c660008301846125a2565b92915050565b6000819050919050565b6125df816125cc565b82525050565b6125ee81612590565b82525050565b60008115159050919050565b612609816125f4565b82525050565b7f4e487b7100000000000000000000000000000000000000000000000000000000600052602160045260246000fd5b6003811061264f5761264e61260f565b5b50565b60008190506126608261263e565b919050565b600061267082612652565b9050919050565b61268081612665565b82525050565b600381106126975761269661260f565b5b50565b60008190506126a882612686565b919050565b60006126b88261269a565b9050919050565b6126c8816126ad565b82525050565b600060099050919050565b600081905092915050565b6000819050919050565b60006126fa83836126bf565b60208301905092915050565b6000602082019050919050565b61271c816126ce565b61272681846126d9565b9250612731826126e4565b8060005b8381101561276257815161274987826126ee565b965061275483612706565b925050600181019050612735565b505050505050565b6102c08201600082015161278160008501826125d6565b50602082015161279460208501826125d6565b5060408201516127a760408501826125d6565b5060608201516127ba60608501826125d6565b5060808201516127cd60808501826125e5565b5060a08201516127e060a08501826125e5565b5060c08201516127f360c08501826125e5565b5060e082015161280660e08501826125e5565b5061010082015161281b610100850182612600565b50610120820151612830610120850182612600565b50610140820151612845610140850182612677565b5061016082015161285a6101608501826126bf565b5061018082015161286f6101808501826126bf565b506101a08201516128846101a0850182612713565b50505050565b60006102c0820190506128a0600083018461276a565b92915050565b600080fd5b6128b481612590565b81146128bf57600080fd5b50565b6000813590506128d1816128ab565b92915050565b6000602082840312156128ed576128ec6128a6565b5b60006128fb848285016128c2565b91505092915050565b61290d816125cc565b82525050565b60006020820190506129286000830184612904565b92915050565b612937816125cc565b811461294257600080fd5b50565b6000813590506129548161292e565b92915050565b6000602082840312156129705761296f6128a6565b5b600061297e84828501612945565b91505092915050565b612990816126ad565b82525050565b60006020820190506129ab6000830184612987565b92915050565b6129ba816125f4565b82525050565b60006020820190506129d560008301846129b1565b92915050565b6129e481612665565b82525050565b60006020820190506129ff60008301846129db565b92915050565b600082825260208201905092915050565b7f506f736974696f6e206973206f7574206f662072616e67650000000000000000600082015250565b6000612a4c601883612a05565b9150612a5782612a16565b602082019050919050565b60006020820190508181036000830152612a7b81612a3f565b9050919050565b7f4e487b7100000000000000000000000000000000000000000000000000000000600052603260045260246000fd5b7f506f736974696f6e20697320616c7265616479206d61726b6564000000000000600082015250565b6000612ae7601a83612a05565b9150612af282612ab1565b602082019050919050565b60006020820190508181036000830152612b1681612ada565b9050919050565b7f47616d65206973206e6f74206163746976650000000000000000000000000000600082015250565b6000612b53601283612a05565b9150612b5e82612b1d565b602082019050919050565b60006020820190508181036000830152612b8281612b46565b9050919050565b7f596f7520617265206e6f74207468652063757272656e7420706c617965720000600082015250565b6000612bbf601e83612a05565b9150612bca82612b89565b602082019050919050565b60006020820190508181036000830152612bee81612bb2565b9050919050565b7f4e487b7100000000000000000000000000000000000000000000000000000000600052601160045260246000fd5b6000612c2f826125cc565b9150612c3a836125cc565b9250828203905081811115612c5257612c51612bf5565b5b92915050565b7f596f752072616e206f7574206f662074696d6520746f206d616b652061206d6f60008201527f7665000000000000000000000000000000000000000000000000000000000000602082015250565b6000612cb4602283612a05565b9150612cbf82612c58565b604082019050919050565b60006020820190508181036000830152612ce381612ca7565b9050919050565b600061012082019050612d00600083018c6125a2565b612d0d602083018b6125a2565b612d1a604083018a612987565b612d276060830189612987565b612d346080830188612904565b612d4160a0830187612904565b612d4e60c0830186612904565b612d5b60e08301856129b1565b612d696101008301846129b1565b9a9950505050505050505050565b600060a082019050612d8c6000830188612987565b612d996020830187612904565b612da66040830186612904565b612db36060830185612904565b612dc06080830184612904565b9695505050505050565b7f4f6e6c79207468652077696e6e65722063616e20636c61696d2074686520726560008201527f7761726400000000000000000000000000000000000000000000000000000000602082015250565b6000612e26602483612a05565b9150612e3182612dca565b604082019050919050565b60006020820190508181036000830152612e5581612e19565b9050919050565b7f47616d65206973206e6f7420656e646564000000000000000000000000000000600082015250565b6000612e92601183612a05565b9150612e9d82612e5c565b602082019050919050565b60006020820190508181036000830152612ec181612e85565b9050919050565b7f4e6f2077696e6e65722c2067616d6520656e64656420696e2061206472617700600082015250565b6000612efe601f83612a05565b9150612f0982612ec8565b602082019050919050565b60006020820190508181036000830152612f2d81612ef1565b9050919050565b7f52657761726420616c726561647920636c61696d656400000000000000000000600082015250565b6000612f6a601683612a05565b9150612f7582612f34565b602082019050919050565b60006020820190508181036000830152612f9981612f5d565b9050919050565b6000612fab826125cc565b9150612fb6836125cc565b9250828202612fc4816125cc565b91508282048414831517612fdb57612fda612bf5565b5b5092915050565b600081905092915050565b50565b6000612ffd600083612fe2565b915061300882612fed565b600082019050919050565b600061301e82612ff0565b9150819050919050565b7f7472616e73666572206661696c65640000000000000000000000000000000000600082015250565b600061305e600f83612a05565b915061306982613028565b602082019050919050565b6000602082019050818103600083015261308d81613051565b9050919050565b7f43616e6e6f74207769746864726177207761676572207768696c652067616d6560008201527f2069732061637469766500000000000000000000000000000000000000000000602082015250565b60006130f0602a83612a05565b91506130fb82613094565b604082019050919050565b6000602082019050818103600083015261311f816130e3565b9050919050565b7f47616d65206973206e6f74206120647261772c2077696e6e6572206d7573742060008201527f63616c6c20636c61696d52657761726400000000000000000000000000000000602082015250565b6000613182603083612a05565b915061318d82613126565b604082019050919050565b600060208201905081810360008301526131b181613175565b9050919050565b7f4e6f7468696e6720746f20776974686472617700000000000000000000000000600082015250565b60006131ee601383612a05565b91506131f9826131b8565b602082019050919050565b6000602082019050818103600083015261321d816131e1565b9050919050565b7f47616d65206973206e6f74206f70656e20746f206a6f696e696e670000000000600082015250565b600061325a601b83612a05565b915061326582613224565b602082019050919050565b600060208201905081810360008301526132898161324d565b9050919050565b7f496e636f727265637420776167657220616d6f756e7400000000000000000000600082015250565b60006132c6601683612a05565b91506132d182613290565b602082019050919050565b600060208201905081810360008301526132f5816132b9565b9050919050565b60006080820190506133116000830187612987565b61331e6020830186612904565b61332b6040830185612904565b6133386060830184612904565b95945050505050565b7f4e487b7100000000000000000000000000000000000000000000000000000000600052601260045260246000fd5b600061337b826125cc565b9150613386836125cc565b92508261339657613395613341565b5b828204905092915050565b60006133ac826125cc565b91506133b7836125cc565b92508282019050808211156133cf576133ce612bf5565b5b92915050565b60006133e0826125cc565b91506133eb836125cc565b9250826133fb576133fa613341565b5b828206905092915050565b6000613411826125cc565b91507fffffffffffffffffffffffffffffffffffffffffffffffffffffffffffffffff820361344357613442612bf5565b5b60018201905091905056fea26469706673582212208fe397e722a816c666d376557db7d891f5452852150725d70a5fb5d60d323c8964736f6c63430008130033a2646970667358221220b4dba938e16fdf75acdeb27a3282f8eaa25445c10dd0586385967a97a942026464736f6c63430008130033",
  "linkReferences": {},
  "deployedLinkReferences": {}
}